{
	"data": {
		"bytecode": {
			"linkReferences": {},
			"object": "608060405234801562000010575f80fd5b5060405162001958380380620019588339818101604052810190620000369190620002f6565b855f806101000a81548173ffffffffffffffffffffffffffffffffffffffff021916908373ffffffffffffffffffffffffffffffffffffffff1602179055508460015f6101000a81548173ffffffffffffffffffffffffffffffffffffffff021916908373ffffffffffffffffffffffffffffffffffffffff1602179055508360029081620000c6919062000641565b508260039081620000d8919062000641565b508160049081620000ea919062000641565b508060059081620000fc919062000641565b505f60068190555050505050505062000725565b5f604051905090565b5f80fd5b5f80fd5b5f73ffffffffffffffffffffffffffffffffffffffff82169050919050565b5f6200014c8262000121565b9050919050565b6200015e8162000140565b811462000169575f80fd5b50565b5f815190506200017c8162000153565b92915050565b5f80fd5b5f80fd5b5f601f19601f8301169050919050565b7f4e487b71000000000000000000000000000000000000000000000000000000005f52604160045260245ffd5b620001d2826200018a565b810181811067ffffffffffffffff82111715620001f457620001f36200019a565b5b80604052505050565b5f6200020862000110565b9050620002168282620001c7565b919050565b5f67ffffffffffffffff8211156200023857620002376200019a565b5b62000243826200018a565b9050602081019050919050565b5f5b838110156200026f57808201518184015260208101905062000252565b5f8484015250505050565b5f620002906200028a846200021b565b620001fd565b905082815260208101848484011115620002af57620002ae62000186565b5b620002bc84828562000250565b509392505050565b5f82601f830112620002db57620002da62000182565b5b8151620002ed8482602086016200027a565b91505092915050565b5f805f805f8060c0878903121562000313576200031262000119565b5b5f6200032289828a016200016c565b96505060206200033589828a016200016c565b955050604087015167ffffffffffffffff8111156200035957620003586200011d565b5b6200036789828a01620002c4565b945050606087015167ffffffffffffffff8111156200038b576200038a6200011d565b5b6200039989828a01620002c4565b935050608087015167ffffffffffffffff811115620003bd57620003bc6200011d565b5b620003cb89828a01620002c4565b92505060a087015167ffffffffffffffff811115620003ef57620003ee6200011d565b5b620003fd89828a01620002c4565b9150509295509295509295565b5f81519050919050565b7f4e487b71000000000000000000000000000000000000000000000000000000005f52602260045260245ffd5b5f60028204905060018216806200045957607f821691505b6020821081036200046f576200046e62000414565b5b50919050565b5f819050815f5260205f209050919050565b5f6020601f8301049050919050565b5f82821b905092915050565b5f60088302620004d37fffffffffffffffffffffffffffffffffffffffffffffffffffffffffffffffff8262000496565b620004df868362000496565b95508019841693508086168417925050509392505050565b5f819050919050565b5f819050919050565b5f62000529620005236200051d84620004f7565b62000500565b620004f7565b9050919050565b5f819050919050565b620005448362000509565b6200055c620005538262000530565b848454620004a2565b825550505050565b5f90565b6200057262000564565b6200057f81848462000539565b505050565b5b81811015620005a6576200059a5f8262000568565b60018101905062000585565b5050565b601f821115620005f557620005bf8162000475565b620005ca8462000487565b81016020851015620005da578190505b620005f2620005e98562000487565b83018262000584565b50505b505050565b5f82821c905092915050565b5f620006175f1984600802620005fa565b1980831691505092915050565b5f62000631838362000606565b9150826002028217905092915050565b6200064c826200040a565b67ffffffffffffffff8111156200066857620006676200019a565b5b62000674825462000441565b62000681828285620005aa565b5f60209050601f831160018114620006b7575f8415620006a2578287015190505b620006ae858262000624565b8655506200071d565b601f198416620006c78662000475565b5f5b82811015620006f057848901518255600182019150602085019450602081019050620006c9565b868310156200071057848901516200070c601f89168262000606565b8355505b6001600288020188555050505b505050505050565b61122580620007335f395ff3fe608060405234801561000f575f80fd5b5060043610610091575f3560e01c8063820e93f511610064578063820e93f51461010b57806389b7ddf214610129578063906fbec914610147578063992ac9fa14610165578063a3b39b511461018357610091565b80630121b93f1461009557806309218e91146100b15780633be8cb5c146100cf5780636904c94d146100ed575b5f80fd5b6100af60048036038101906100aa9190610a7c565b6101a1565b005b6100b96102cf565b6040516100c69190610b31565b60405180910390f35b6100d761035b565b6040516100e49190610b31565b60405180910390f35b6100f56103c3565b6040516101029190610b31565b60405180910390f35b61011361044f565b6040516101209190610b31565b60405180910390f35b6101316104db565b60405161013e9190610b31565b60405180910390f35b61014f610567565b60405161015c9190610b90565b60405180910390f35b61016d61058c565b60405161017a9190610b90565b60405180910390f35b61018b6105af565b6040516101989190610bb8565b60405180910390f35b5f8054906101000a900473ffffffffffffffffffffffffffffffffffffffff1673ffffffffffffffffffffffffffffffffffffffff163373ffffffffffffffffffffffffffffffffffffffff161461022e576040517f08c379a000000000000000000000000000000000000000000000000000000000815260040161022590610c41565b60405180910390fd5b60015f9054906101000a900473ffffffffffffffffffffffffffffffffffffffff1673ffffffffffffffffffffffffffffffffffffffff16630121b93f826040518263ffffffff1660e01b81526004016102889190610bb8565b5f604051808303815f87803b15801561029f575f80fd5b505af11580156102b1573d5f803e3d5ffd5b5050505060065f8154809291906102c790610c8c565b919050555050565b600480546102dc90610d00565b80601f016020809104026020016040519081016040528092919081815260200182805461030890610d00565b80156103535780601f1061032a57610100808354040283529160200191610353565b820191905f5260205f20905b81548152906001019060200180831161033657829003601f168201915b505050505081565b606060026003600460056103706006546105b5565b61039a5f8054906101000a900473ffffffffffffffffffffffffffffffffffffffff166014610733565b6040516020016103af96959493929190610fb8565b604051602081830303815290604052905090565b600380546103d090610d00565b80601f01602080910402602001604051908101604052809291908181526020018280546103fc90610d00565b80156104475780601f1061041e57610100808354040283529160200191610447565b820191905f5260205f20905b81548152906001019060200180831161042a57829003601f168201915b505050505081565b6005805461045c90610d00565b80601f016020809104026020016040519081016040528092919081815260200182805461048890610d00565b80156104d35780601f106104aa576101008083540402835291602001916104d3565b820191905f5260205f20905b8154815290600101906020018083116104b657829003601f168201915b505050505081565b600280546104e890610d00565b80601f016020809104026020016040519081016040528092919081815260200182805461051490610d00565b801561055f5780601f106105365761010080835404028352916020019161055f565b820191905f5260205f20905b81548152906001019060200180831161054257829003601f168201915b505050505081565b60015f9054906101000a900473ffffffffffffffffffffffffffffffffffffffff1681565b5f8054906101000a900473ffffffffffffffffffffffffffffffffffffffff1681565b60065481565b60605f82036105fb576040518060400160405280600181526020017f3000000000000000000000000000000000000000000000000000000000000000815250905061072e565b5f8290505f5b5f821461062a57808061061390610c8c565b915050600a82610623919061107e565b9150610601565b5f8167ffffffffffffffff811115610645576106446110ae565b5b6040519080825280601f01601f1916602001820160405280156106775781602001600182028036833780820191505090505b5090505f8290505b5f86146107265760018161069391906110db565b90505f600a80886106a4919061107e565b6106ae919061110e565b876106b991906110db565b60306106c5919061115b565b90505f8160f81b9050808484815181106106e2576106e161118f565b5b60200101907effffffffffffffffffffffffffffffffffffffffffffffffffffffffffffff191690815f1a905350600a8861071d919061107e565b9750505061067f565b819450505050505b919050565b60605f8373ffffffffffffffffffffffffffffffffffffffff165f1b90505f6040518060400160405280601081526020017f303132333435363738396162636465660000000000000000000000000000000081525090505f600285600261079a919061110e565b6107a491906111bc565b67ffffffffffffffff8111156107bd576107bc6110ae565b5b6040519080825280601f01601f1916602001820160405280156107ef5781602001600182028036833780820191505090505b5090507f3000000000000000000000000000000000000000000000000000000000000000815f815181106108265761082561118f565b5b60200101907effffffffffffffffffffffffffffffffffffffffffffffffffffffffffffff191690815f1a9053507f7800000000000000000000000000000000000000000000000000000000000000816001815181106108895761088861118f565b5b60200101907effffffffffffffffffffffffffffffffffffffffffffffffffffffffffffff191690815f1a9053505f5b85811015610a385782600485600c846108d291906111bc565b602081106108e3576108e261118f565b5b1a60f81b7effffffffffffffffffffffffffffffffffffffffffffffffffffffffffffff1916901c60f81c60ff16815181106109225761092161118f565b5b602001015160f81c60f81b8260028361093b919061110e565b600261094791906111bc565b815181106109585761095761118f565b5b60200101907effffffffffffffffffffffffffffffffffffffffffffffffffffffffffffff191690815f1a90535082600f60f81b85600c8461099a91906111bc565b602081106109ab576109aa61118f565b5b1a60f81b1660f81c60ff16815181106109c7576109c661118f565b5b602001015160f81c60f81b826002836109e0919061110e565b60036109ec91906111bc565b815181106109fd576109fc61118f565b5b60200101907effffffffffffffffffffffffffffffffffffffffffffffffffffffffffffff191690815f1a90535080806001019150506108b9565b5080935050505092915050565b5f80fd5b5f819050919050565b610a5b81610a49565b8114610a65575f80fd5b50565b5f81359050610a7681610a52565b92915050565b5f60208284031215610a9157610a90610a45565b5b5f610a9e84828501610a68565b91505092915050565b5f81519050919050565b5f82825260208201905092915050565b5f5b83811015610ade578082015181840152602081019050610ac3565b5f8484015250505050565b5f601f19601f8301169050919050565b5f610b0382610aa7565b610b0d8185610ab1565b9350610b1d818560208601610ac1565b610b2681610ae9565b840191505092915050565b5f6020820190508181035f830152610b498184610af9565b905092915050565b5f73ffffffffffffffffffffffffffffffffffffffff82169050919050565b5f610b7a82610b51565b9050919050565b610b8a81610b70565b82525050565b5f602082019050610ba35f830184610b81565b92915050565b610bb281610a49565b82525050565b5f602082019050610bcb5f830184610ba9565b92915050565b7f4f6e6c792074686520766f7465722063616e2063616c6c20746869732066756e5f8201527f6374696f6e000000000000000000000000000000000000000000000000000000602082015250565b5f610c2b602583610ab1565b9150610c3682610bd1565b604082019050919050565b5f6020820190508181035f830152610c5881610c1f565b9050919050565b7f4e487b71000000000000000000000000000000000000000000000000000000005f52601160045260245ffd5b5f610c9682610a49565b91507fffffffffffffffffffffffffffffffffffffffffffffffffffffffffffffffff8203610cc857610cc7610c5f565b5b600182019050919050565b7f4e487b71000000000000000000000000000000000000000000000000000000005f52602260045260245ffd5b5f6002820490506001821680610d1757607f821691505b602082108103610d2a57610d29610cd3565b5b50919050565b5f81905092915050565b7f46756c6c204e616d653a200000000000000000000000000000000000000000005f82015250565b5f610d6e600b83610d30565b9150610d7982610d3a565b600b82019050919050565b5f819050815f5260205f209050919050565b5f8154610da281610d00565b610dac8186610d30565b9450600182165f8114610dc65760018114610ddb57610e0d565b60ff1983168652811515820286019350610e0d565b610de485610d84565b5f5b83811015610e0557815481890152600182019150602081019050610de6565b838801955050505b50505092915050565b7f2c20436f6d70616e793a200000000000000000000000000000000000000000005f82015250565b5f610e4a600b83610d30565b9150610e5582610e16565b600b82019050919050565b7f2c20506f736974696f6e3a2000000000000000000000000000000000000000005f82015250565b5f610e94600c83610d30565b9150610e9f82610e60565b600c82019050919050565b7f2c20456d61696c3a2000000000000000000000000000000000000000000000005f82015250565b5f610ede600983610d30565b9150610ee982610eaa565b600982019050919050565b7f2c20566f746573204d6164653a200000000000000000000000000000000000005f82015250565b5f610f28600e83610d30565b9150610f3382610ef4565b600e82019050919050565b5f610f4882610aa7565b610f528185610d30565b9350610f62818560208601610ac1565b80840191505092915050565b7f2c20566f74657220416464726573733a200000000000000000000000000000005f82015250565b5f610fa2601183610d30565b9150610fad82610f6e565b601182019050919050565b5f610fc282610d62565b9150610fce8289610d96565b9150610fd982610e3e565b9150610fe58288610d96565b9150610ff082610e88565b9150610ffc8287610d96565b915061100782610ed2565b91506110138286610d96565b915061101e82610f1c565b915061102a8285610f3e565b915061103582610f96565b91506110418284610f3e565b9150819050979650505050505050565b7f4e487b71000000000000000000000000000000000000000000000000000000005f52601260045260245ffd5b5f61108882610a49565b915061109383610a49565b9250826110a3576110a2611051565b5b828204905092915050565b7f4e487b71000000000000000000000000000000000000000000000000000000005f52604160045260245ffd5b5f6110e582610a49565b91506110f083610a49565b925082820390508181111561110857611107610c5f565b5b92915050565b5f61111882610a49565b915061112383610a49565b925082820261113181610a49565b9150828204841483151761114857611147610c5f565b5b5092915050565b5f60ff82169050919050565b5f6111658261114f565b91506111708361114f565b9250828201905060ff81111561118957611188610c5f565b5b92915050565b7f4e487b71000000000000000000000000000000000000000000000000000000005f52603260045260245ffd5b5f6111c682610a49565b91506111d183610a49565b92508282019050808211156111e9576111e8610c5f565b5b9291505056fea26469706673582212202c8029a9a71348c4aba6d6572a449fc4b36c8e656a90e7d5d82a65a4b3efcc8664736f6c63430008160033",
			"opcodes": "PUSH1 0x80 PUSH1 0x40 MSTORE CALLVALUE DUP1 ISZERO PUSH3 0x10 JUMPI PUSH0 DUP1 REVERT JUMPDEST POP PUSH1 0x40 MLOAD PUSH3 0x1958 CODESIZE SUB DUP1 PUSH3 0x1958 DUP4 CODECOPY DUP2 DUP2 ADD PUSH1 0x40 MSTORE DUP2 ADD SWAP1 PUSH3 0x36 SWAP2 SWAP1 PUSH3 0x2F6 JUMP JUMPDEST DUP6 PUSH0 DUP1 PUSH2 0x100 EXP DUP2 SLOAD DUP2 PUSH20 0xFFFFFFFFFFFFFFFFFFFFFFFFFFFFFFFFFFFFFFFF MUL NOT AND SWAP1 DUP4 PUSH20 0xFFFFFFFFFFFFFFFFFFFFFFFFFFFFFFFFFFFFFFFF AND MUL OR SWAP1 SSTORE POP DUP5 PUSH1 0x1 PUSH0 PUSH2 0x100 EXP DUP2 SLOAD DUP2 PUSH20 0xFFFFFFFFFFFFFFFFFFFFFFFFFFFFFFFFFFFFFFFF MUL NOT AND SWAP1 DUP4 PUSH20 0xFFFFFFFFFFFFFFFFFFFFFFFFFFFFFFFFFFFFFFFF AND MUL OR SWAP1 SSTORE POP DUP4 PUSH1 0x2 SWAP1 DUP2 PUSH3 0xC6 SWAP2 SWAP1 PUSH3 0x641 JUMP JUMPDEST POP DUP3 PUSH1 0x3 SWAP1 DUP2 PUSH3 0xD8 SWAP2 SWAP1 PUSH3 0x641 JUMP JUMPDEST POP DUP2 PUSH1 0x4 SWAP1 DUP2 PUSH3 0xEA SWAP2 SWAP1 PUSH3 0x641 JUMP JUMPDEST POP DUP1 PUSH1 0x5 SWAP1 DUP2 PUSH3 0xFC SWAP2 SWAP1 PUSH3 0x641 JUMP JUMPDEST POP PUSH0 PUSH1 0x6 DUP2 SWAP1 SSTORE POP POP POP POP POP POP POP PUSH3 0x725 JUMP JUMPDEST PUSH0 PUSH1 0x40 MLOAD SWAP1 POP SWAP1 JUMP JUMPDEST PUSH0 DUP1 REVERT JUMPDEST PUSH0 DUP1 REVERT JUMPDEST PUSH0 PUSH20 0xFFFFFFFFFFFFFFFFFFFFFFFFFFFFFFFFFFFFFFFF DUP3 AND SWAP1 POP SWAP2 SWAP1 POP JUMP JUMPDEST PUSH0 PUSH3 0x14C DUP3 PUSH3 0x121 JUMP JUMPDEST SWAP1 POP SWAP2 SWAP1 POP JUMP JUMPDEST PUSH3 0x15E DUP2 PUSH3 0x140 JUMP JUMPDEST DUP2 EQ PUSH3 0x169 JUMPI PUSH0 DUP1 REVERT JUMPDEST POP JUMP JUMPDEST PUSH0 DUP2 MLOAD SWAP1 POP PUSH3 0x17C DUP2 PUSH3 0x153 JUMP JUMPDEST SWAP3 SWAP2 POP POP JUMP JUMPDEST PUSH0 DUP1 REVERT JUMPDEST PUSH0 DUP1 REVERT JUMPDEST PUSH0 PUSH1 0x1F NOT PUSH1 0x1F DUP4 ADD AND SWAP1 POP SWAP2 SWAP1 POP JUMP JUMPDEST PUSH32 0x4E487B7100000000000000000000000000000000000000000000000000000000 PUSH0 MSTORE PUSH1 0x41 PUSH1 0x4 MSTORE PUSH1 0x24 PUSH0 REVERT JUMPDEST PUSH3 0x1D2 DUP3 PUSH3 0x18A JUMP JUMPDEST DUP2 ADD DUP2 DUP2 LT PUSH8 0xFFFFFFFFFFFFFFFF DUP3 GT OR ISZERO PUSH3 0x1F4 JUMPI PUSH3 0x1F3 PUSH3 0x19A JUMP JUMPDEST JUMPDEST DUP1 PUSH1 0x40 MSTORE POP POP POP JUMP JUMPDEST PUSH0 PUSH3 0x208 PUSH3 0x110 JUMP JUMPDEST SWAP1 POP PUSH3 0x216 DUP3 DUP3 PUSH3 0x1C7 JUMP JUMPDEST SWAP2 SWAP1 POP JUMP JUMPDEST PUSH0 PUSH8 0xFFFFFFFFFFFFFFFF DUP3 GT ISZERO PUSH3 0x238 JUMPI PUSH3 0x237 PUSH3 0x19A JUMP JUMPDEST JUMPDEST PUSH3 0x243 DUP3 PUSH3 0x18A JUMP JUMPDEST SWAP1 POP PUSH1 0x20 DUP2 ADD SWAP1 POP SWAP2 SWAP1 POP JUMP JUMPDEST PUSH0 JUMPDEST DUP4 DUP2 LT ISZERO PUSH3 0x26F JUMPI DUP1 DUP3 ADD MLOAD DUP2 DUP5 ADD MSTORE PUSH1 0x20 DUP2 ADD SWAP1 POP PUSH3 0x252 JUMP JUMPDEST PUSH0 DUP5 DUP5 ADD MSTORE POP POP POP POP JUMP JUMPDEST PUSH0 PUSH3 0x290 PUSH3 0x28A DUP5 PUSH3 0x21B JUMP JUMPDEST PUSH3 0x1FD JUMP JUMPDEST SWAP1 POP DUP3 DUP2 MSTORE PUSH1 0x20 DUP2 ADD DUP5 DUP5 DUP5 ADD GT ISZERO PUSH3 0x2AF JUMPI PUSH3 0x2AE PUSH3 0x186 JUMP JUMPDEST JUMPDEST PUSH3 0x2BC DUP5 DUP3 DUP6 PUSH3 0x250 JUMP JUMPDEST POP SWAP4 SWAP3 POP POP POP JUMP JUMPDEST PUSH0 DUP3 PUSH1 0x1F DUP4 ADD SLT PUSH3 0x2DB JUMPI PUSH3 0x2DA PUSH3 0x182 JUMP JUMPDEST JUMPDEST DUP2 MLOAD PUSH3 0x2ED DUP5 DUP3 PUSH1 0x20 DUP7 ADD PUSH3 0x27A JUMP JUMPDEST SWAP2 POP POP SWAP3 SWAP2 POP POP JUMP JUMPDEST PUSH0 DUP1 PUSH0 DUP1 PUSH0 DUP1 PUSH1 0xC0 DUP8 DUP10 SUB SLT ISZERO PUSH3 0x313 JUMPI PUSH3 0x312 PUSH3 0x119 JUMP JUMPDEST JUMPDEST PUSH0 PUSH3 0x322 DUP10 DUP3 DUP11 ADD PUSH3 0x16C JUMP JUMPDEST SWAP7 POP POP PUSH1 0x20 PUSH3 0x335 DUP10 DUP3 DUP11 ADD PUSH3 0x16C JUMP JUMPDEST SWAP6 POP POP PUSH1 0x40 DUP8 ADD MLOAD PUSH8 0xFFFFFFFFFFFFFFFF DUP2 GT ISZERO PUSH3 0x359 JUMPI PUSH3 0x358 PUSH3 0x11D JUMP JUMPDEST JUMPDEST PUSH3 0x367 DUP10 DUP3 DUP11 ADD PUSH3 0x2C4 JUMP JUMPDEST SWAP5 POP POP PUSH1 0x60 DUP8 ADD MLOAD PUSH8 0xFFFFFFFFFFFFFFFF DUP2 GT ISZERO PUSH3 0x38B JUMPI PUSH3 0x38A PUSH3 0x11D JUMP JUMPDEST JUMPDEST PUSH3 0x399 DUP10 DUP3 DUP11 ADD PUSH3 0x2C4 JUMP JUMPDEST SWAP4 POP POP PUSH1 0x80 DUP8 ADD MLOAD PUSH8 0xFFFFFFFFFFFFFFFF DUP2 GT ISZERO PUSH3 0x3BD JUMPI PUSH3 0x3BC PUSH3 0x11D JUMP JUMPDEST JUMPDEST PUSH3 0x3CB DUP10 DUP3 DUP11 ADD PUSH3 0x2C4 JUMP JUMPDEST SWAP3 POP POP PUSH1 0xA0 DUP8 ADD MLOAD PUSH8 0xFFFFFFFFFFFFFFFF DUP2 GT ISZERO PUSH3 0x3EF JUMPI PUSH3 0x3EE PUSH3 0x11D JUMP JUMPDEST JUMPDEST PUSH3 0x3FD DUP10 DUP3 DUP11 ADD PUSH3 0x2C4 JUMP JUMPDEST SWAP2 POP POP SWAP3 SWAP6 POP SWAP3 SWAP6 POP SWAP3 SWAP6 JUMP JUMPDEST PUSH0 DUP2 MLOAD SWAP1 POP SWAP2 SWAP1 POP JUMP JUMPDEST PUSH32 0x4E487B7100000000000000000000000000000000000000000000000000000000 PUSH0 MSTORE PUSH1 0x22 PUSH1 0x4 MSTORE PUSH1 0x24 PUSH0 REVERT JUMPDEST PUSH0 PUSH1 0x2 DUP3 DIV SWAP1 POP PUSH1 0x1 DUP3 AND DUP1 PUSH3 0x459 JUMPI PUSH1 0x7F DUP3 AND SWAP2 POP JUMPDEST PUSH1 0x20 DUP3 LT DUP2 SUB PUSH3 0x46F JUMPI PUSH3 0x46E PUSH3 0x414 JUMP JUMPDEST JUMPDEST POP SWAP2 SWAP1 POP JUMP JUMPDEST PUSH0 DUP2 SWAP1 POP DUP2 PUSH0 MSTORE PUSH1 0x20 PUSH0 KECCAK256 SWAP1 POP SWAP2 SWAP1 POP JUMP JUMPDEST PUSH0 PUSH1 0x20 PUSH1 0x1F DUP4 ADD DIV SWAP1 POP SWAP2 SWAP1 POP JUMP JUMPDEST PUSH0 DUP3 DUP3 SHL SWAP1 POP SWAP3 SWAP2 POP POP JUMP JUMPDEST PUSH0 PUSH1 0x8 DUP4 MUL PUSH3 0x4D3 PUSH32 0xFFFFFFFFFFFFFFFFFFFFFFFFFFFFFFFFFFFFFFFFFFFFFFFFFFFFFFFFFFFFFFFF DUP3 PUSH3 0x496 JUMP JUMPDEST PUSH3 0x4DF DUP7 DUP4 PUSH3 0x496 JUMP JUMPDEST SWAP6 POP DUP1 NOT DUP5 AND SWAP4 POP DUP1 DUP7 AND DUP5 OR SWAP3 POP POP POP SWAP4 SWAP3 POP POP POP JUMP JUMPDEST PUSH0 DUP2 SWAP1 POP SWAP2 SWAP1 POP JUMP JUMPDEST PUSH0 DUP2 SWAP1 POP SWAP2 SWAP1 POP JUMP JUMPDEST PUSH0 PUSH3 0x529 PUSH3 0x523 PUSH3 0x51D DUP5 PUSH3 0x4F7 JUMP JUMPDEST PUSH3 0x500 JUMP JUMPDEST PUSH3 0x4F7 JUMP JUMPDEST SWAP1 POP SWAP2 SWAP1 POP JUMP JUMPDEST PUSH0 DUP2 SWAP1 POP SWAP2 SWAP1 POP JUMP JUMPDEST PUSH3 0x544 DUP4 PUSH3 0x509 JUMP JUMPDEST PUSH3 0x55C PUSH3 0x553 DUP3 PUSH3 0x530 JUMP JUMPDEST DUP5 DUP5 SLOAD PUSH3 0x4A2 JUMP JUMPDEST DUP3 SSTORE POP POP POP POP JUMP JUMPDEST PUSH0 SWAP1 JUMP JUMPDEST PUSH3 0x572 PUSH3 0x564 JUMP JUMPDEST PUSH3 0x57F DUP2 DUP5 DUP5 PUSH3 0x539 JUMP JUMPDEST POP POP POP JUMP JUMPDEST JUMPDEST DUP2 DUP2 LT ISZERO PUSH3 0x5A6 JUMPI PUSH3 0x59A PUSH0 DUP3 PUSH3 0x568 JUMP JUMPDEST PUSH1 0x1 DUP2 ADD SWAP1 POP PUSH3 0x585 JUMP JUMPDEST POP POP JUMP JUMPDEST PUSH1 0x1F DUP3 GT ISZERO PUSH3 0x5F5 JUMPI PUSH3 0x5BF DUP2 PUSH3 0x475 JUMP JUMPDEST PUSH3 0x5CA DUP5 PUSH3 0x487 JUMP JUMPDEST DUP2 ADD PUSH1 0x20 DUP6 LT ISZERO PUSH3 0x5DA JUMPI DUP2 SWAP1 POP JUMPDEST PUSH3 0x5F2 PUSH3 0x5E9 DUP6 PUSH3 0x487 JUMP JUMPDEST DUP4 ADD DUP3 PUSH3 0x584 JUMP JUMPDEST POP POP JUMPDEST POP POP POP JUMP JUMPDEST PUSH0 DUP3 DUP3 SHR SWAP1 POP SWAP3 SWAP2 POP POP JUMP JUMPDEST PUSH0 PUSH3 0x617 PUSH0 NOT DUP5 PUSH1 0x8 MUL PUSH3 0x5FA JUMP JUMPDEST NOT DUP1 DUP4 AND SWAP2 POP POP SWAP3 SWAP2 POP POP JUMP JUMPDEST PUSH0 PUSH3 0x631 DUP4 DUP4 PUSH3 0x606 JUMP JUMPDEST SWAP2 POP DUP3 PUSH1 0x2 MUL DUP3 OR SWAP1 POP SWAP3 SWAP2 POP POP JUMP JUMPDEST PUSH3 0x64C DUP3 PUSH3 0x40A JUMP JUMPDEST PUSH8 0xFFFFFFFFFFFFFFFF DUP2 GT ISZERO PUSH3 0x668 JUMPI PUSH3 0x667 PUSH3 0x19A JUMP JUMPDEST JUMPDEST PUSH3 0x674 DUP3 SLOAD PUSH3 0x441 JUMP JUMPDEST PUSH3 0x681 DUP3 DUP3 DUP6 PUSH3 0x5AA JUMP JUMPDEST PUSH0 PUSH1 0x20 SWAP1 POP PUSH1 0x1F DUP4 GT PUSH1 0x1 DUP2 EQ PUSH3 0x6B7 JUMPI PUSH0 DUP5 ISZERO PUSH3 0x6A2 JUMPI DUP3 DUP8 ADD MLOAD SWAP1 POP JUMPDEST PUSH3 0x6AE DUP6 DUP3 PUSH3 0x624 JUMP JUMPDEST DUP7 SSTORE POP PUSH3 0x71D JUMP JUMPDEST PUSH1 0x1F NOT DUP5 AND PUSH3 0x6C7 DUP7 PUSH3 0x475 JUMP JUMPDEST PUSH0 JUMPDEST DUP3 DUP2 LT ISZERO PUSH3 0x6F0 JUMPI DUP5 DUP10 ADD MLOAD DUP3 SSTORE PUSH1 0x1 DUP3 ADD SWAP2 POP PUSH1 0x20 DUP6 ADD SWAP5 POP PUSH1 0x20 DUP2 ADD SWAP1 POP PUSH3 0x6C9 JUMP JUMPDEST DUP7 DUP4 LT ISZERO PUSH3 0x710 JUMPI DUP5 DUP10 ADD MLOAD PUSH3 0x70C PUSH1 0x1F DUP10 AND DUP3 PUSH3 0x606 JUMP JUMPDEST DUP4 SSTORE POP JUMPDEST PUSH1 0x1 PUSH1 0x2 DUP9 MUL ADD DUP9 SSTORE POP POP POP JUMPDEST POP POP POP POP POP POP JUMP JUMPDEST PUSH2 0x1225 DUP1 PUSH3 0x733 PUSH0 CODECOPY PUSH0 RETURN INVALID PUSH1 0x80 PUSH1 0x40 MSTORE CALLVALUE DUP1 ISZERO PUSH2 0xF JUMPI PUSH0 DUP1 REVERT JUMPDEST POP PUSH1 0x4 CALLDATASIZE LT PUSH2 0x91 JUMPI PUSH0 CALLDATALOAD PUSH1 0xE0 SHR DUP1 PUSH4 0x820E93F5 GT PUSH2 0x64 JUMPI DUP1 PUSH4 0x820E93F5 EQ PUSH2 0x10B JUMPI DUP1 PUSH4 0x89B7DDF2 EQ PUSH2 0x129 JUMPI DUP1 PUSH4 0x906FBEC9 EQ PUSH2 0x147 JUMPI DUP1 PUSH4 0x992AC9FA EQ PUSH2 0x165 JUMPI DUP1 PUSH4 0xA3B39B51 EQ PUSH2 0x183 JUMPI PUSH2 0x91 JUMP JUMPDEST DUP1 PUSH4 0x121B93F EQ PUSH2 0x95 JUMPI DUP1 PUSH4 0x9218E91 EQ PUSH2 0xB1 JUMPI DUP1 PUSH4 0x3BE8CB5C EQ PUSH2 0xCF JUMPI DUP1 PUSH4 0x6904C94D EQ PUSH2 0xED JUMPI JUMPDEST PUSH0 DUP1 REVERT JUMPDEST PUSH2 0xAF PUSH1 0x4 DUP1 CALLDATASIZE SUB DUP2 ADD SWAP1 PUSH2 0xAA SWAP2 SWAP1 PUSH2 0xA7C JUMP JUMPDEST PUSH2 0x1A1 JUMP JUMPDEST STOP JUMPDEST PUSH2 0xB9 PUSH2 0x2CF JUMP JUMPDEST PUSH1 0x40 MLOAD PUSH2 0xC6 SWAP2 SWAP1 PUSH2 0xB31 JUMP JUMPDEST PUSH1 0x40 MLOAD DUP1 SWAP2 SUB SWAP1 RETURN JUMPDEST PUSH2 0xD7 PUSH2 0x35B JUMP JUMPDEST PUSH1 0x40 MLOAD PUSH2 0xE4 SWAP2 SWAP1 PUSH2 0xB31 JUMP JUMPDEST PUSH1 0x40 MLOAD DUP1 SWAP2 SUB SWAP1 RETURN JUMPDEST PUSH2 0xF5 PUSH2 0x3C3 JUMP JUMPDEST PUSH1 0x40 MLOAD PUSH2 0x102 SWAP2 SWAP1 PUSH2 0xB31 JUMP JUMPDEST PUSH1 0x40 MLOAD DUP1 SWAP2 SUB SWAP1 RETURN JUMPDEST PUSH2 0x113 PUSH2 0x44F JUMP JUMPDEST PUSH1 0x40 MLOAD PUSH2 0x120 SWAP2 SWAP1 PUSH2 0xB31 JUMP JUMPDEST PUSH1 0x40 MLOAD DUP1 SWAP2 SUB SWAP1 RETURN JUMPDEST PUSH2 0x131 PUSH2 0x4DB JUMP JUMPDEST PUSH1 0x40 MLOAD PUSH2 0x13E SWAP2 SWAP1 PUSH2 0xB31 JUMP JUMPDEST PUSH1 0x40 MLOAD DUP1 SWAP2 SUB SWAP1 RETURN JUMPDEST PUSH2 0x14F PUSH2 0x567 JUMP JUMPDEST PUSH1 0x40 MLOAD PUSH2 0x15C SWAP2 SWAP1 PUSH2 0xB90 JUMP JUMPDEST PUSH1 0x40 MLOAD DUP1 SWAP2 SUB SWAP1 RETURN JUMPDEST PUSH2 0x16D PUSH2 0x58C JUMP JUMPDEST PUSH1 0x40 MLOAD PUSH2 0x17A SWAP2 SWAP1 PUSH2 0xB90 JUMP JUMPDEST PUSH1 0x40 MLOAD DUP1 SWAP2 SUB SWAP1 RETURN JUMPDEST PUSH2 0x18B PUSH2 0x5AF JUMP JUMPDEST PUSH1 0x40 MLOAD PUSH2 0x198 SWAP2 SWAP1 PUSH2 0xBB8 JUMP JUMPDEST PUSH1 0x40 MLOAD DUP1 SWAP2 SUB SWAP1 RETURN JUMPDEST PUSH0 DUP1 SLOAD SWAP1 PUSH2 0x100 EXP SWAP1 DIV PUSH20 0xFFFFFFFFFFFFFFFFFFFFFFFFFFFFFFFFFFFFFFFF AND PUSH20 0xFFFFFFFFFFFFFFFFFFFFFFFFFFFFFFFFFFFFFFFF AND CALLER PUSH20 0xFFFFFFFFFFFFFFFFFFFFFFFFFFFFFFFFFFFFFFFF AND EQ PUSH2 0x22E JUMPI PUSH1 0x40 MLOAD PUSH32 0x8C379A000000000000000000000000000000000000000000000000000000000 DUP2 MSTORE PUSH1 0x4 ADD PUSH2 0x225 SWAP1 PUSH2 0xC41 JUMP JUMPDEST PUSH1 0x40 MLOAD DUP1 SWAP2 SUB SWAP1 REVERT JUMPDEST PUSH1 0x1 PUSH0 SWAP1 SLOAD SWAP1 PUSH2 0x100 EXP SWAP1 DIV PUSH20 0xFFFFFFFFFFFFFFFFFFFFFFFFFFFFFFFFFFFFFFFF AND PUSH20 0xFFFFFFFFFFFFFFFFFFFFFFFFFFFFFFFFFFFFFFFF AND PUSH4 0x121B93F DUP3 PUSH1 0x40 MLOAD DUP3 PUSH4 0xFFFFFFFF AND PUSH1 0xE0 SHL DUP2 MSTORE PUSH1 0x4 ADD PUSH2 0x288 SWAP2 SWAP1 PUSH2 0xBB8 JUMP JUMPDEST PUSH0 PUSH1 0x40 MLOAD DUP1 DUP4 SUB DUP2 PUSH0 DUP8 DUP1 EXTCODESIZE ISZERO DUP1 ISZERO PUSH2 0x29F JUMPI PUSH0 DUP1 REVERT JUMPDEST POP GAS CALL ISZERO DUP1 ISZERO PUSH2 0x2B1 JUMPI RETURNDATASIZE PUSH0 DUP1 RETURNDATACOPY RETURNDATASIZE PUSH0 REVERT JUMPDEST POP POP POP POP PUSH1 0x6 PUSH0 DUP2 SLOAD DUP1 SWAP3 SWAP2 SWAP1 PUSH2 0x2C7 SWAP1 PUSH2 0xC8C JUMP JUMPDEST SWAP2 SWAP1 POP SSTORE POP POP JUMP JUMPDEST PUSH1 0x4 DUP1 SLOAD PUSH2 0x2DC SWAP1 PUSH2 0xD00 JUMP JUMPDEST DUP1 PUSH1 0x1F ADD PUSH1 0x20 DUP1 SWAP2 DIV MUL PUSH1 0x20 ADD PUSH1 0x40 MLOAD SWAP1 DUP2 ADD PUSH1 0x40 MSTORE DUP1 SWAP3 SWAP2 SWAP1 DUP2 DUP2 MSTORE PUSH1 0x20 ADD DUP3 DUP1 SLOAD PUSH2 0x308 SWAP1 PUSH2 0xD00 JUMP JUMPDEST DUP1 ISZERO PUSH2 0x353 JUMPI DUP1 PUSH1 0x1F LT PUSH2 0x32A JUMPI PUSH2 0x100 DUP1 DUP4 SLOAD DIV MUL DUP4 MSTORE SWAP2 PUSH1 0x20 ADD SWAP2 PUSH2 0x353 JUMP JUMPDEST DUP3 ADD SWAP2 SWAP1 PUSH0 MSTORE PUSH1 0x20 PUSH0 KECCAK256 SWAP1 JUMPDEST DUP2 SLOAD DUP2 MSTORE SWAP1 PUSH1 0x1 ADD SWAP1 PUSH1 0x20 ADD DUP1 DUP4 GT PUSH2 0x336 JUMPI DUP3 SWAP1 SUB PUSH1 0x1F AND DUP3 ADD SWAP2 JUMPDEST POP POP POP POP POP DUP2 JUMP JUMPDEST PUSH1 0x60 PUSH1 0x2 PUSH1 0x3 PUSH1 0x4 PUSH1 0x5 PUSH2 0x370 PUSH1 0x6 SLOAD PUSH2 0x5B5 JUMP JUMPDEST PUSH2 0x39A PUSH0 DUP1 SLOAD SWAP1 PUSH2 0x100 EXP SWAP1 DIV PUSH20 0xFFFFFFFFFFFFFFFFFFFFFFFFFFFFFFFFFFFFFFFF AND PUSH1 0x14 PUSH2 0x733 JUMP JUMPDEST PUSH1 0x40 MLOAD PUSH1 0x20 ADD PUSH2 0x3AF SWAP7 SWAP6 SWAP5 SWAP4 SWAP3 SWAP2 SWAP1 PUSH2 0xFB8 JUMP JUMPDEST PUSH1 0x40 MLOAD PUSH1 0x20 DUP2 DUP4 SUB SUB DUP2 MSTORE SWAP1 PUSH1 0x40 MSTORE SWAP1 POP SWAP1 JUMP JUMPDEST PUSH1 0x3 DUP1 SLOAD PUSH2 0x3D0 SWAP1 PUSH2 0xD00 JUMP JUMPDEST DUP1 PUSH1 0x1F ADD PUSH1 0x20 DUP1 SWAP2 DIV MUL PUSH1 0x20 ADD PUSH1 0x40 MLOAD SWAP1 DUP2 ADD PUSH1 0x40 MSTORE DUP1 SWAP3 SWAP2 SWAP1 DUP2 DUP2 MSTORE PUSH1 0x20 ADD DUP3 DUP1 SLOAD PUSH2 0x3FC SWAP1 PUSH2 0xD00 JUMP JUMPDEST DUP1 ISZERO PUSH2 0x447 JUMPI DUP1 PUSH1 0x1F LT PUSH2 0x41E JUMPI PUSH2 0x100 DUP1 DUP4 SLOAD DIV MUL DUP4 MSTORE SWAP2 PUSH1 0x20 ADD SWAP2 PUSH2 0x447 JUMP JUMPDEST DUP3 ADD SWAP2 SWAP1 PUSH0 MSTORE PUSH1 0x20 PUSH0 KECCAK256 SWAP1 JUMPDEST DUP2 SLOAD DUP2 MSTORE SWAP1 PUSH1 0x1 ADD SWAP1 PUSH1 0x20 ADD DUP1 DUP4 GT PUSH2 0x42A JUMPI DUP3 SWAP1 SUB PUSH1 0x1F AND DUP3 ADD SWAP2 JUMPDEST POP POP POP POP POP DUP2 JUMP JUMPDEST PUSH1 0x5 DUP1 SLOAD PUSH2 0x45C SWAP1 PUSH2 0xD00 JUMP JUMPDEST DUP1 PUSH1 0x1F ADD PUSH1 0x20 DUP1 SWAP2 DIV MUL PUSH1 0x20 ADD PUSH1 0x40 MLOAD SWAP1 DUP2 ADD PUSH1 0x40 MSTORE DUP1 SWAP3 SWAP2 SWAP1 DUP2 DUP2 MSTORE PUSH1 0x20 ADD DUP3 DUP1 SLOAD PUSH2 0x488 SWAP1 PUSH2 0xD00 JUMP JUMPDEST DUP1 ISZERO PUSH2 0x4D3 JUMPI DUP1 PUSH1 0x1F LT PUSH2 0x4AA JUMPI PUSH2 0x100 DUP1 DUP4 SLOAD DIV MUL DUP4 MSTORE SWAP2 PUSH1 0x20 ADD SWAP2 PUSH2 0x4D3 JUMP JUMPDEST DUP3 ADD SWAP2 SWAP1 PUSH0 MSTORE PUSH1 0x20 PUSH0 KECCAK256 SWAP1 JUMPDEST DUP2 SLOAD DUP2 MSTORE SWAP1 PUSH1 0x1 ADD SWAP1 PUSH1 0x20 ADD DUP1 DUP4 GT PUSH2 0x4B6 JUMPI DUP3 SWAP1 SUB PUSH1 0x1F AND DUP3 ADD SWAP2 JUMPDEST POP POP POP POP POP DUP2 JUMP JUMPDEST PUSH1 0x2 DUP1 SLOAD PUSH2 0x4E8 SWAP1 PUSH2 0xD00 JUMP JUMPDEST DUP1 PUSH1 0x1F ADD PUSH1 0x20 DUP1 SWAP2 DIV MUL PUSH1 0x20 ADD PUSH1 0x40 MLOAD SWAP1 DUP2 ADD PUSH1 0x40 MSTORE DUP1 SWAP3 SWAP2 SWAP1 DUP2 DUP2 MSTORE PUSH1 0x20 ADD DUP3 DUP1 SLOAD PUSH2 0x514 SWAP1 PUSH2 0xD00 JUMP JUMPDEST DUP1 ISZERO PUSH2 0x55F JUMPI DUP1 PUSH1 0x1F LT PUSH2 0x536 JUMPI PUSH2 0x100 DUP1 DUP4 SLOAD DIV MUL DUP4 MSTORE SWAP2 PUSH1 0x20 ADD SWAP2 PUSH2 0x55F JUMP JUMPDEST DUP3 ADD SWAP2 SWAP1 PUSH0 MSTORE PUSH1 0x20 PUSH0 KECCAK256 SWAP1 JUMPDEST DUP2 SLOAD DUP2 MSTORE SWAP1 PUSH1 0x1 ADD SWAP1 PUSH1 0x20 ADD DUP1 DUP4 GT PUSH2 0x542 JUMPI DUP3 SWAP1 SUB PUSH1 0x1F AND DUP3 ADD SWAP2 JUMPDEST POP POP POP POP POP DUP2 JUMP JUMPDEST PUSH1 0x1 PUSH0 SWAP1 SLOAD SWAP1 PUSH2 0x100 EXP SWAP1 DIV PUSH20 0xFFFFFFFFFFFFFFFFFFFFFFFFFFFFFFFFFFFFFFFF AND DUP2 JUMP JUMPDEST PUSH0 DUP1 SLOAD SWAP1 PUSH2 0x100 EXP SWAP1 DIV PUSH20 0xFFFFFFFFFFFFFFFFFFFFFFFFFFFFFFFFFFFFFFFF AND DUP2 JUMP JUMPDEST PUSH1 0x6 SLOAD DUP2 JUMP JUMPDEST PUSH1 0x60 PUSH0 DUP3 SUB PUSH2 0x5FB JUMPI PUSH1 0x40 MLOAD DUP1 PUSH1 0x40 ADD PUSH1 0x40 MSTORE DUP1 PUSH1 0x1 DUP2 MSTORE PUSH1 0x20 ADD PUSH32 0x3000000000000000000000000000000000000000000000000000000000000000 DUP2 MSTORE POP SWAP1 POP PUSH2 0x72E JUMP JUMPDEST PUSH0 DUP3 SWAP1 POP PUSH0 JUMPDEST PUSH0 DUP3 EQ PUSH2 0x62A JUMPI DUP1 DUP1 PUSH2 0x613 SWAP1 PUSH2 0xC8C JUMP JUMPDEST SWAP2 POP POP PUSH1 0xA DUP3 PUSH2 0x623 SWAP2 SWAP1 PUSH2 0x107E JUMP JUMPDEST SWAP2 POP PUSH2 0x601 JUMP JUMPDEST PUSH0 DUP2 PUSH8 0xFFFFFFFFFFFFFFFF DUP2 GT ISZERO PUSH2 0x645 JUMPI PUSH2 0x644 PUSH2 0x10AE JUMP JUMPDEST JUMPDEST PUSH1 0x40 MLOAD SWAP1 DUP1 DUP3 MSTORE DUP1 PUSH1 0x1F ADD PUSH1 0x1F NOT AND PUSH1 0x20 ADD DUP3 ADD PUSH1 0x40 MSTORE DUP1 ISZERO PUSH2 0x677 JUMPI DUP2 PUSH1 0x20 ADD PUSH1 0x1 DUP3 MUL DUP1 CALLDATASIZE DUP4 CALLDATACOPY DUP1 DUP3 ADD SWAP2 POP POP SWAP1 POP JUMPDEST POP SWAP1 POP PUSH0 DUP3 SWAP1 POP JUMPDEST PUSH0 DUP7 EQ PUSH2 0x726 JUMPI PUSH1 0x1 DUP2 PUSH2 0x693 SWAP2 SWAP1 PUSH2 0x10DB JUMP JUMPDEST SWAP1 POP PUSH0 PUSH1 0xA DUP1 DUP9 PUSH2 0x6A4 SWAP2 SWAP1 PUSH2 0x107E JUMP JUMPDEST PUSH2 0x6AE SWAP2 SWAP1 PUSH2 0x110E JUMP JUMPDEST DUP8 PUSH2 0x6B9 SWAP2 SWAP1 PUSH2 0x10DB JUMP JUMPDEST PUSH1 0x30 PUSH2 0x6C5 SWAP2 SWAP1 PUSH2 0x115B JUMP JUMPDEST SWAP1 POP PUSH0 DUP2 PUSH1 0xF8 SHL SWAP1 POP DUP1 DUP5 DUP5 DUP2 MLOAD DUP2 LT PUSH2 0x6E2 JUMPI PUSH2 0x6E1 PUSH2 0x118F JUMP JUMPDEST JUMPDEST PUSH1 0x20 ADD ADD SWAP1 PUSH31 0xFFFFFFFFFFFFFFFFFFFFFFFFFFFFFFFFFFFFFFFFFFFFFFFFFFFFFFFFFFFFFF NOT AND SWAP1 DUP2 PUSH0 BYTE SWAP1 MSTORE8 POP PUSH1 0xA DUP9 PUSH2 0x71D SWAP2 SWAP1 PUSH2 0x107E JUMP JUMPDEST SWAP8 POP POP POP PUSH2 0x67F JUMP JUMPDEST DUP2 SWAP5 POP POP POP POP POP JUMPDEST SWAP2 SWAP1 POP JUMP JUMPDEST PUSH1 0x60 PUSH0 DUP4 PUSH20 0xFFFFFFFFFFFFFFFFFFFFFFFFFFFFFFFFFFFFFFFF AND PUSH0 SHL SWAP1 POP PUSH0 PUSH1 0x40 MLOAD DUP1 PUSH1 0x40 ADD PUSH1 0x40 MSTORE DUP1 PUSH1 0x10 DUP2 MSTORE PUSH1 0x20 ADD PUSH32 0x3031323334353637383961626364656600000000000000000000000000000000 DUP2 MSTORE POP SWAP1 POP PUSH0 PUSH1 0x2 DUP6 PUSH1 0x2 PUSH2 0x79A SWAP2 SWAP1 PUSH2 0x110E JUMP JUMPDEST PUSH2 0x7A4 SWAP2 SWAP1 PUSH2 0x11BC JUMP JUMPDEST PUSH8 0xFFFFFFFFFFFFFFFF DUP2 GT ISZERO PUSH2 0x7BD JUMPI PUSH2 0x7BC PUSH2 0x10AE JUMP JUMPDEST JUMPDEST PUSH1 0x40 MLOAD SWAP1 DUP1 DUP3 MSTORE DUP1 PUSH1 0x1F ADD PUSH1 0x1F NOT AND PUSH1 0x20 ADD DUP3 ADD PUSH1 0x40 MSTORE DUP1 ISZERO PUSH2 0x7EF JUMPI DUP2 PUSH1 0x20 ADD PUSH1 0x1 DUP3 MUL DUP1 CALLDATASIZE DUP4 CALLDATACOPY DUP1 DUP3 ADD SWAP2 POP POP SWAP1 POP JUMPDEST POP SWAP1 POP PUSH32 0x3000000000000000000000000000000000000000000000000000000000000000 DUP2 PUSH0 DUP2 MLOAD DUP2 LT PUSH2 0x826 JUMPI PUSH2 0x825 PUSH2 0x118F JUMP JUMPDEST JUMPDEST PUSH1 0x20 ADD ADD SWAP1 PUSH31 0xFFFFFFFFFFFFFFFFFFFFFFFFFFFFFFFFFFFFFFFFFFFFFFFFFFFFFFFFFFFFFF NOT AND SWAP1 DUP2 PUSH0 BYTE SWAP1 MSTORE8 POP PUSH32 0x7800000000000000000000000000000000000000000000000000000000000000 DUP2 PUSH1 0x1 DUP2 MLOAD DUP2 LT PUSH2 0x889 JUMPI PUSH2 0x888 PUSH2 0x118F JUMP JUMPDEST JUMPDEST PUSH1 0x20 ADD ADD SWAP1 PUSH31 0xFFFFFFFFFFFFFFFFFFFFFFFFFFFFFFFFFFFFFFFFFFFFFFFFFFFFFFFFFFFFFF NOT AND SWAP1 DUP2 PUSH0 BYTE SWAP1 MSTORE8 POP PUSH0 JUMPDEST DUP6 DUP2 LT ISZERO PUSH2 0xA38 JUMPI DUP3 PUSH1 0x4 DUP6 PUSH1 0xC DUP5 PUSH2 0x8D2 SWAP2 SWAP1 PUSH2 0x11BC JUMP JUMPDEST PUSH1 0x20 DUP2 LT PUSH2 0x8E3 JUMPI PUSH2 0x8E2 PUSH2 0x118F JUMP JUMPDEST JUMPDEST BYTE PUSH1 0xF8 SHL PUSH31 0xFFFFFFFFFFFFFFFFFFFFFFFFFFFFFFFFFFFFFFFFFFFFFFFFFFFFFFFFFFFFFF NOT AND SWAP1 SHR PUSH1 0xF8 SHR PUSH1 0xFF AND DUP2 MLOAD DUP2 LT PUSH2 0x922 JUMPI PUSH2 0x921 PUSH2 0x118F JUMP JUMPDEST JUMPDEST PUSH1 0x20 ADD ADD MLOAD PUSH1 0xF8 SHR PUSH1 0xF8 SHL DUP3 PUSH1 0x2 DUP4 PUSH2 0x93B SWAP2 SWAP1 PUSH2 0x110E JUMP JUMPDEST PUSH1 0x2 PUSH2 0x947 SWAP2 SWAP1 PUSH2 0x11BC JUMP JUMPDEST DUP2 MLOAD DUP2 LT PUSH2 0x958 JUMPI PUSH2 0x957 PUSH2 0x118F JUMP JUMPDEST JUMPDEST PUSH1 0x20 ADD ADD SWAP1 PUSH31 0xFFFFFFFFFFFFFFFFFFFFFFFFFFFFFFFFFFFFFFFFFFFFFFFFFFFFFFFFFFFFFF NOT AND SWAP1 DUP2 PUSH0 BYTE SWAP1 MSTORE8 POP DUP3 PUSH1 0xF PUSH1 0xF8 SHL DUP6 PUSH1 0xC DUP5 PUSH2 0x99A SWAP2 SWAP1 PUSH2 0x11BC JUMP JUMPDEST PUSH1 0x20 DUP2 LT PUSH2 0x9AB JUMPI PUSH2 0x9AA PUSH2 0x118F JUMP JUMPDEST JUMPDEST BYTE PUSH1 0xF8 SHL AND PUSH1 0xF8 SHR PUSH1 0xFF AND DUP2 MLOAD DUP2 LT PUSH2 0x9C7 JUMPI PUSH2 0x9C6 PUSH2 0x118F JUMP JUMPDEST JUMPDEST PUSH1 0x20 ADD ADD MLOAD PUSH1 0xF8 SHR PUSH1 0xF8 SHL DUP3 PUSH1 0x2 DUP4 PUSH2 0x9E0 SWAP2 SWAP1 PUSH2 0x110E JUMP JUMPDEST PUSH1 0x3 PUSH2 0x9EC SWAP2 SWAP1 PUSH2 0x11BC JUMP JUMPDEST DUP2 MLOAD DUP2 LT PUSH2 0x9FD JUMPI PUSH2 0x9FC PUSH2 0x118F JUMP JUMPDEST JUMPDEST PUSH1 0x20 ADD ADD SWAP1 PUSH31 0xFFFFFFFFFFFFFFFFFFFFFFFFFFFFFFFFFFFFFFFFFFFFFFFFFFFFFFFFFFFFFF NOT AND SWAP1 DUP2 PUSH0 BYTE SWAP1 MSTORE8 POP DUP1 DUP1 PUSH1 0x1 ADD SWAP2 POP POP PUSH2 0x8B9 JUMP JUMPDEST POP DUP1 SWAP4 POP POP POP POP SWAP3 SWAP2 POP POP JUMP JUMPDEST PUSH0 DUP1 REVERT JUMPDEST PUSH0 DUP2 SWAP1 POP SWAP2 SWAP1 POP JUMP JUMPDEST PUSH2 0xA5B DUP2 PUSH2 0xA49 JUMP JUMPDEST DUP2 EQ PUSH2 0xA65 JUMPI PUSH0 DUP1 REVERT JUMPDEST POP JUMP JUMPDEST PUSH0 DUP2 CALLDATALOAD SWAP1 POP PUSH2 0xA76 DUP2 PUSH2 0xA52 JUMP JUMPDEST SWAP3 SWAP2 POP POP JUMP JUMPDEST PUSH0 PUSH1 0x20 DUP3 DUP5 SUB SLT ISZERO PUSH2 0xA91 JUMPI PUSH2 0xA90 PUSH2 0xA45 JUMP JUMPDEST JUMPDEST PUSH0 PUSH2 0xA9E DUP5 DUP3 DUP6 ADD PUSH2 0xA68 JUMP JUMPDEST SWAP2 POP POP SWAP3 SWAP2 POP POP JUMP JUMPDEST PUSH0 DUP2 MLOAD SWAP1 POP SWAP2 SWAP1 POP JUMP JUMPDEST PUSH0 DUP3 DUP3 MSTORE PUSH1 0x20 DUP3 ADD SWAP1 POP SWAP3 SWAP2 POP POP JUMP JUMPDEST PUSH0 JUMPDEST DUP4 DUP2 LT ISZERO PUSH2 0xADE JUMPI DUP1 DUP3 ADD MLOAD DUP2 DUP5 ADD MSTORE PUSH1 0x20 DUP2 ADD SWAP1 POP PUSH2 0xAC3 JUMP JUMPDEST PUSH0 DUP5 DUP5 ADD MSTORE POP POP POP POP JUMP JUMPDEST PUSH0 PUSH1 0x1F NOT PUSH1 0x1F DUP4 ADD AND SWAP1 POP SWAP2 SWAP1 POP JUMP JUMPDEST PUSH0 PUSH2 0xB03 DUP3 PUSH2 0xAA7 JUMP JUMPDEST PUSH2 0xB0D DUP2 DUP6 PUSH2 0xAB1 JUMP JUMPDEST SWAP4 POP PUSH2 0xB1D DUP2 DUP6 PUSH1 0x20 DUP7 ADD PUSH2 0xAC1 JUMP JUMPDEST PUSH2 0xB26 DUP2 PUSH2 0xAE9 JUMP JUMPDEST DUP5 ADD SWAP2 POP POP SWAP3 SWAP2 POP POP JUMP JUMPDEST PUSH0 PUSH1 0x20 DUP3 ADD SWAP1 POP DUP2 DUP2 SUB PUSH0 DUP4 ADD MSTORE PUSH2 0xB49 DUP2 DUP5 PUSH2 0xAF9 JUMP JUMPDEST SWAP1 POP SWAP3 SWAP2 POP POP JUMP JUMPDEST PUSH0 PUSH20 0xFFFFFFFFFFFFFFFFFFFFFFFFFFFFFFFFFFFFFFFF DUP3 AND SWAP1 POP SWAP2 SWAP1 POP JUMP JUMPDEST PUSH0 PUSH2 0xB7A DUP3 PUSH2 0xB51 JUMP JUMPDEST SWAP1 POP SWAP2 SWAP1 POP JUMP JUMPDEST PUSH2 0xB8A DUP2 PUSH2 0xB70 JUMP JUMPDEST DUP3 MSTORE POP POP JUMP JUMPDEST PUSH0 PUSH1 0x20 DUP3 ADD SWAP1 POP PUSH2 0xBA3 PUSH0 DUP4 ADD DUP5 PUSH2 0xB81 JUMP JUMPDEST SWAP3 SWAP2 POP POP JUMP JUMPDEST PUSH2 0xBB2 DUP2 PUSH2 0xA49 JUMP JUMPDEST DUP3 MSTORE POP POP JUMP JUMPDEST PUSH0 PUSH1 0x20 DUP3 ADD SWAP1 POP PUSH2 0xBCB PUSH0 DUP4 ADD DUP5 PUSH2 0xBA9 JUMP JUMPDEST SWAP3 SWAP2 POP POP JUMP JUMPDEST PUSH32 0x4F6E6C792074686520766F7465722063616E2063616C6C20746869732066756E PUSH0 DUP3 ADD MSTORE PUSH32 0x6374696F6E000000000000000000000000000000000000000000000000000000 PUSH1 0x20 DUP3 ADD MSTORE POP JUMP JUMPDEST PUSH0 PUSH2 0xC2B PUSH1 0x25 DUP4 PUSH2 0xAB1 JUMP JUMPDEST SWAP2 POP PUSH2 0xC36 DUP3 PUSH2 0xBD1 JUMP JUMPDEST PUSH1 0x40 DUP3 ADD SWAP1 POP SWAP2 SWAP1 POP JUMP JUMPDEST PUSH0 PUSH1 0x20 DUP3 ADD SWAP1 POP DUP2 DUP2 SUB PUSH0 DUP4 ADD MSTORE PUSH2 0xC58 DUP2 PUSH2 0xC1F JUMP JUMPDEST SWAP1 POP SWAP2 SWAP1 POP JUMP JUMPDEST PUSH32 0x4E487B7100000000000000000000000000000000000000000000000000000000 PUSH0 MSTORE PUSH1 0x11 PUSH1 0x4 MSTORE PUSH1 0x24 PUSH0 REVERT JUMPDEST PUSH0 PUSH2 0xC96 DUP3 PUSH2 0xA49 JUMP JUMPDEST SWAP2 POP PUSH32 0xFFFFFFFFFFFFFFFFFFFFFFFFFFFFFFFFFFFFFFFFFFFFFFFFFFFFFFFFFFFFFFFF DUP3 SUB PUSH2 0xCC8 JUMPI PUSH2 0xCC7 PUSH2 0xC5F JUMP JUMPDEST JUMPDEST PUSH1 0x1 DUP3 ADD SWAP1 POP SWAP2 SWAP1 POP JUMP JUMPDEST PUSH32 0x4E487B7100000000000000000000000000000000000000000000000000000000 PUSH0 MSTORE PUSH1 0x22 PUSH1 0x4 MSTORE PUSH1 0x24 PUSH0 REVERT JUMPDEST PUSH0 PUSH1 0x2 DUP3 DIV SWAP1 POP PUSH1 0x1 DUP3 AND DUP1 PUSH2 0xD17 JUMPI PUSH1 0x7F DUP3 AND SWAP2 POP JUMPDEST PUSH1 0x20 DUP3 LT DUP2 SUB PUSH2 0xD2A JUMPI PUSH2 0xD29 PUSH2 0xCD3 JUMP JUMPDEST JUMPDEST POP SWAP2 SWAP1 POP JUMP JUMPDEST PUSH0 DUP2 SWAP1 POP SWAP3 SWAP2 POP POP JUMP JUMPDEST PUSH32 0x46756C6C204E616D653A20000000000000000000000000000000000000000000 PUSH0 DUP3 ADD MSTORE POP JUMP JUMPDEST PUSH0 PUSH2 0xD6E PUSH1 0xB DUP4 PUSH2 0xD30 JUMP JUMPDEST SWAP2 POP PUSH2 0xD79 DUP3 PUSH2 0xD3A JUMP JUMPDEST PUSH1 0xB DUP3 ADD SWAP1 POP SWAP2 SWAP1 POP JUMP JUMPDEST PUSH0 DUP2 SWAP1 POP DUP2 PUSH0 MSTORE PUSH1 0x20 PUSH0 KECCAK256 SWAP1 POP SWAP2 SWAP1 POP JUMP JUMPDEST PUSH0 DUP2 SLOAD PUSH2 0xDA2 DUP2 PUSH2 0xD00 JUMP JUMPDEST PUSH2 0xDAC DUP2 DUP7 PUSH2 0xD30 JUMP JUMPDEST SWAP5 POP PUSH1 0x1 DUP3 AND PUSH0 DUP2 EQ PUSH2 0xDC6 JUMPI PUSH1 0x1 DUP2 EQ PUSH2 0xDDB JUMPI PUSH2 0xE0D JUMP JUMPDEST PUSH1 0xFF NOT DUP4 AND DUP7 MSTORE DUP2 ISZERO ISZERO DUP3 MUL DUP7 ADD SWAP4 POP PUSH2 0xE0D JUMP JUMPDEST PUSH2 0xDE4 DUP6 PUSH2 0xD84 JUMP JUMPDEST PUSH0 JUMPDEST DUP4 DUP2 LT ISZERO PUSH2 0xE05 JUMPI DUP2 SLOAD DUP2 DUP10 ADD MSTORE PUSH1 0x1 DUP3 ADD SWAP2 POP PUSH1 0x20 DUP2 ADD SWAP1 POP PUSH2 0xDE6 JUMP JUMPDEST DUP4 DUP9 ADD SWAP6 POP POP POP JUMPDEST POP POP POP SWAP3 SWAP2 POP POP JUMP JUMPDEST PUSH32 0x2C20436F6D70616E793A20000000000000000000000000000000000000000000 PUSH0 DUP3 ADD MSTORE POP JUMP JUMPDEST PUSH0 PUSH2 0xE4A PUSH1 0xB DUP4 PUSH2 0xD30 JUMP JUMPDEST SWAP2 POP PUSH2 0xE55 DUP3 PUSH2 0xE16 JUMP JUMPDEST PUSH1 0xB DUP3 ADD SWAP1 POP SWAP2 SWAP1 POP JUMP JUMPDEST PUSH32 0x2C20506F736974696F6E3A200000000000000000000000000000000000000000 PUSH0 DUP3 ADD MSTORE POP JUMP JUMPDEST PUSH0 PUSH2 0xE94 PUSH1 0xC DUP4 PUSH2 0xD30 JUMP JUMPDEST SWAP2 POP PUSH2 0xE9F DUP3 PUSH2 0xE60 JUMP JUMPDEST PUSH1 0xC DUP3 ADD SWAP1 POP SWAP2 SWAP1 POP JUMP JUMPDEST PUSH32 0x2C20456D61696C3A200000000000000000000000000000000000000000000000 PUSH0 DUP3 ADD MSTORE POP JUMP JUMPDEST PUSH0 PUSH2 0xEDE PUSH1 0x9 DUP4 PUSH2 0xD30 JUMP JUMPDEST SWAP2 POP PUSH2 0xEE9 DUP3 PUSH2 0xEAA JUMP JUMPDEST PUSH1 0x9 DUP3 ADD SWAP1 POP SWAP2 SWAP1 POP JUMP JUMPDEST PUSH32 0x2C20566F746573204D6164653A20000000000000000000000000000000000000 PUSH0 DUP3 ADD MSTORE POP JUMP JUMPDEST PUSH0 PUSH2 0xF28 PUSH1 0xE DUP4 PUSH2 0xD30 JUMP JUMPDEST SWAP2 POP PUSH2 0xF33 DUP3 PUSH2 0xEF4 JUMP JUMPDEST PUSH1 0xE DUP3 ADD SWAP1 POP SWAP2 SWAP1 POP JUMP JUMPDEST PUSH0 PUSH2 0xF48 DUP3 PUSH2 0xAA7 JUMP JUMPDEST PUSH2 0xF52 DUP2 DUP6 PUSH2 0xD30 JUMP JUMPDEST SWAP4 POP PUSH2 0xF62 DUP2 DUP6 PUSH1 0x20 DUP7 ADD PUSH2 0xAC1 JUMP JUMPDEST DUP1 DUP5 ADD SWAP2 POP POP SWAP3 SWAP2 POP POP JUMP JUMPDEST PUSH32 0x2C20566F74657220416464726573733A20000000000000000000000000000000 PUSH0 DUP3 ADD MSTORE POP JUMP JUMPDEST PUSH0 PUSH2 0xFA2 PUSH1 0x11 DUP4 PUSH2 0xD30 JUMP JUMPDEST SWAP2 POP PUSH2 0xFAD DUP3 PUSH2 0xF6E JUMP JUMPDEST PUSH1 0x11 DUP3 ADD SWAP1 POP SWAP2 SWAP1 POP JUMP JUMPDEST PUSH0 PUSH2 0xFC2 DUP3 PUSH2 0xD62 JUMP JUMPDEST SWAP2 POP PUSH2 0xFCE DUP3 DUP10 PUSH2 0xD96 JUMP JUMPDEST SWAP2 POP PUSH2 0xFD9 DUP3 PUSH2 0xE3E JUMP JUMPDEST SWAP2 POP PUSH2 0xFE5 DUP3 DUP9 PUSH2 0xD96 JUMP JUMPDEST SWAP2 POP PUSH2 0xFF0 DUP3 PUSH2 0xE88 JUMP JUMPDEST SWAP2 POP PUSH2 0xFFC DUP3 DUP8 PUSH2 0xD96 JUMP JUMPDEST SWAP2 POP PUSH2 0x1007 DUP3 PUSH2 0xED2 JUMP JUMPDEST SWAP2 POP PUSH2 0x1013 DUP3 DUP7 PUSH2 0xD96 JUMP JUMPDEST SWAP2 POP PUSH2 0x101E DUP3 PUSH2 0xF1C JUMP JUMPDEST SWAP2 POP PUSH2 0x102A DUP3 DUP6 PUSH2 0xF3E JUMP JUMPDEST SWAP2 POP PUSH2 0x1035 DUP3 PUSH2 0xF96 JUMP JUMPDEST SWAP2 POP PUSH2 0x1041 DUP3 DUP5 PUSH2 0xF3E JUMP JUMPDEST SWAP2 POP DUP2 SWAP1 POP SWAP8 SWAP7 POP POP POP POP POP POP POP JUMP JUMPDEST PUSH32 0x4E487B7100000000000000000000000000000000000000000000000000000000 PUSH0 MSTORE PUSH1 0x12 PUSH1 0x4 MSTORE PUSH1 0x24 PUSH0 REVERT JUMPDEST PUSH0 PUSH2 0x1088 DUP3 PUSH2 0xA49 JUMP JUMPDEST SWAP2 POP PUSH2 0x1093 DUP4 PUSH2 0xA49 JUMP JUMPDEST SWAP3 POP DUP3 PUSH2 0x10A3 JUMPI PUSH2 0x10A2 PUSH2 0x1051 JUMP JUMPDEST JUMPDEST DUP3 DUP3 DIV SWAP1 POP SWAP3 SWAP2 POP POP JUMP JUMPDEST PUSH32 0x4E487B7100000000000000000000000000000000000000000000000000000000 PUSH0 MSTORE PUSH1 0x41 PUSH1 0x4 MSTORE PUSH1 0x24 PUSH0 REVERT JUMPDEST PUSH0 PUSH2 0x10E5 DUP3 PUSH2 0xA49 JUMP JUMPDEST SWAP2 POP PUSH2 0x10F0 DUP4 PUSH2 0xA49 JUMP JUMPDEST SWAP3 POP DUP3 DUP3 SUB SWAP1 POP DUP2 DUP2 GT ISZERO PUSH2 0x1108 JUMPI PUSH2 0x1107 PUSH2 0xC5F JUMP JUMPDEST JUMPDEST SWAP3 SWAP2 POP POP JUMP JUMPDEST PUSH0 PUSH2 0x1118 DUP3 PUSH2 0xA49 JUMP JUMPDEST SWAP2 POP PUSH2 0x1123 DUP4 PUSH2 0xA49 JUMP JUMPDEST SWAP3 POP DUP3 DUP3 MUL PUSH2 0x1131 DUP2 PUSH2 0xA49 JUMP JUMPDEST SWAP2 POP DUP3 DUP3 DIV DUP5 EQ DUP4 ISZERO OR PUSH2 0x1148 JUMPI PUSH2 0x1147 PUSH2 0xC5F JUMP JUMPDEST JUMPDEST POP SWAP3 SWAP2 POP POP JUMP JUMPDEST PUSH0 PUSH1 0xFF DUP3 AND SWAP1 POP SWAP2 SWAP1 POP JUMP JUMPDEST PUSH0 PUSH2 0x1165 DUP3 PUSH2 0x114F JUMP JUMPDEST SWAP2 POP PUSH2 0x1170 DUP4 PUSH2 0x114F JUMP JUMPDEST SWAP3 POP DUP3 DUP3 ADD SWAP1 POP PUSH1 0xFF DUP2 GT ISZERO PUSH2 0x1189 JUMPI PUSH2 0x1188 PUSH2 0xC5F JUMP JUMPDEST JUMPDEST SWAP3 SWAP2 POP POP JUMP JUMPDEST PUSH32 0x4E487B7100000000000000000000000000000000000000000000000000000000 PUSH0 MSTORE PUSH1 0x32 PUSH1 0x4 MSTORE PUSH1 0x24 PUSH0 REVERT JUMPDEST PUSH0 PUSH2 0x11C6 DUP3 PUSH2 0xA49 JUMP JUMPDEST SWAP2 POP PUSH2 0x11D1 DUP4 PUSH2 0xA49 JUMP JUMPDEST SWAP3 POP DUP3 DUP3 ADD SWAP1 POP DUP1 DUP3 GT ISZERO PUSH2 0x11E9 JUMPI PUSH2 0x11E8 PUSH2 0xC5F JUMP JUMPDEST JUMPDEST SWAP3 SWAP2 POP POP JUMP INVALID LOG2 PUSH5 0x6970667358 0x22 SLT KECCAK256 0x2C DUP1 0x29 0xA9 0xA7 SGT BASEFEE 0xC4 0xAB 0xA6 0xD6 JUMPI 0x2A PREVRANDAO SWAP16 0xC4 0xB3 PUSH13 0x8E656A90E7D5D82A65A4B3EFCC DUP7 PUSH5 0x736F6C6343 STOP ADDMOD AND STOP CALLER "
		},
		"gasEstimates": {
			"creation": {
				"codeDepositCost": "929000",
				"executionCost": "infinite",
				"totalCost": "infinite"
			},
			"external": {
				"company()": "infinite",
				"email()": "infinite",
				"fullName()": "infinite",
				"position()": "infinite",
				"vote(uint256)": "infinite",
				"voteContractAddress()": "2552",
				"voterAddress()": "2571",
				"voterInfo()": "infinite",
				"votesMade()": "2513"
			},
			"internal": {
				"toHexString(address,uint256)": "infinite",
				"uint2str(uint256)": "infinite"
			}
		},
		"methodIdentifiers": {
			"company()": "6904c94d",
			"email()": "820e93f5",
			"fullName()": "89b7ddf2",
			"position()": "09218e91",
			"vote(uint256)": "0121b93f",
			"voteContractAddress()": "906fbec9",
			"voterAddress()": "992ac9fa",
			"voterInfo()": "3be8cb5c",
			"votesMade()": "a3b39b51"
		}
	},
	"abi": [
		{
			"inputs": [
				{
					"internalType": "address",
					"name": "_voterAddress",
					"type": "address"
				},
				{
					"internalType": "address",
					"name": "_voteContractAddress",
					"type": "address"
				},
				{
					"internalType": "string",
					"name": "_fullName",
					"type": "string"
				},
				{
					"internalType": "string",
					"name": "_company",
					"type": "string"
				},
				{
					"internalType": "string",
					"name": "_position",
					"type": "string"
				},
				{
					"internalType": "string",
					"name": "_email",
					"type": "string"
				}
			],
			"stateMutability": "nonpayable",
			"type": "constructor"
		},
		{
			"inputs": [],
			"name": "company",
			"outputs": [
				{
					"internalType": "string",
					"name": "",
					"type": "string"
				}
			],
			"stateMutability": "view",
			"type": "function"
		},
		{
			"inputs": [],
			"name": "email",
			"outputs": [
				{
					"internalType": "string",
					"name": "",
					"type": "string"
				}
			],
			"stateMutability": "view",
			"type": "function"
		},
		{
			"inputs": [],
			"name": "fullName",
			"outputs": [
				{
					"internalType": "string",
					"name": "",
					"type": "string"
				}
			],
			"stateMutability": "view",
			"type": "function"
		},
		{
			"inputs": [],
			"name": "position",
			"outputs": [
				{
					"internalType": "string",
					"name": "",
					"type": "string"
				}
			],
			"stateMutability": "view",
			"type": "function"
		},
		{
			"inputs": [
				{
					"internalType": "uint256",
					"name": "_candidateId",
					"type": "uint256"
				}
			],
			"name": "vote",
			"outputs": [],
			"stateMutability": "nonpayable",
			"type": "function"
		},
		{
			"inputs": [],
			"name": "voteContractAddress",
			"outputs": [
				{
					"internalType": "address",
					"name": "",
					"type": "address"
				}
			],
			"stateMutability": "view",
			"type": "function"
		},
		{
			"inputs": [],
			"name": "voterAddress",
			"outputs": [
				{
					"internalType": "address",
					"name": "",
					"type": "address"
				}
			],
			"stateMutability": "view",
			"type": "function"
		},
		{
			"inputs": [],
			"name": "voterInfo",
			"outputs": [
				{
					"internalType": "string",
					"name": "",
					"type": "string"
				}
			],
			"stateMutability": "view",
			"type": "function"
		},
		{
			"inputs": [],
			"name": "votesMade",
			"outputs": [
				{
					"internalType": "uint256",
					"name": "",
					"type": "uint256"
				}
			],
			"stateMutability": "view",
			"type": "function"
		}
	]
}